{"abi":[{"type":"constructor","inputs":[],"stateMutability":"nonpayable"},{"type":"function","name":"getTotalPayments","inputs":[{"name":"user","type":"address","internalType":"address"}],"outputs":[{"name":"","type":"uint256","internalType":"uint256"}],"stateMutability":"view"},{"type":"function","name":"makePayment","inputs":[{"name":"_recipient","type":"address","internalType":"address"}],"outputs":[],"stateMutability":"payable"},{"type":"event","name":"PaymentReceived","inputs":[{"name":"_from","type":"address","indexed":true,"internalType":"address"},{"name":"_amount","type":"uint256","indexed":false,"internalType":"uint256"},{"name":"timestamp","type":"uint256","indexed":false,"internalType":"uint256"}],"anonymous":false},{"type":"error","name":"Cant_Access_Other_PeaplePayments","inputs":[]},{"type":"error","name":"Payment_Amount_Must_Be_Greater_Than_0","inputs":[{"name":"amount","type":"uint256","internalType":"uint256"}]},{"type":"error","name":"Payment__TransferFailed","inputs":[]}],"bytecode":{"object":"0x608060405234801561001057600080fd5b5061024f806100206000396000f3fe6080604052600436106100295760003560e01c8063300be4fc1461002e5780634d39ae4714610043575b600080fd5b61004161003c3660046101c2565b610075565b005b34801561004f57600080fd5b5061006361005e3660046101c2565b61017b565b60405190815260200160405180910390f35b423461009a57604051636226d3a560e11b815234600482015260240160405180910390fd5b6000826001600160a01b03163460405160006040518083038185875af1925050503d80600081146100e7576040519150601f19603f3d011682016040523d82523d6000602084013e6100ec565b606091505b505090508061010e57604051637306f00b60e11b815260040160405180910390fd5b6001600160a01b038316600090815260208190526040812080543492906101369084906101f2565b9091555050604080513481526020810184905233917f5677b5d4cf976ac32defbd95a6a5aaf0d1fee450a11fc26f3c11aae6e6c33d06910160405180910390a2505050565b6000336001600160a01b038316146101a6576040516309753d2b60e11b815260040160405180910390fd5b506001600160a01b031660009081526020819052604090205490565b6000602082840312156101d457600080fd5b81356001600160a01b03811681146101eb57600080fd5b9392505050565b8082018082111561021357634e487b7160e01b600052601160045260246000fd5b9291505056fea2646970667358221220705397f7d8c75d4efcfa37b9e9841263c3d4d5fd895712bd4523695345ded41464736f6c63430008170033","linkReferences":{}},"methodIdentifiers":{"getTotalPayments(address)":"4d39ae47","makePayment(address)":"300be4fc"},"id":25}