{"abi":[{"type":"constructor","inputs":[],"stateMutability":"nonpayable"},{"type":"function","name":"blockTimestamps","inputs":[{"name":"","type":"uint256","internalType":"uint256"}],"outputs":[{"name":"","type":"string","internalType":"string"}],"stateMutability":"view"},{"type":"function","name":"getTotalPayments","inputs":[{"name":"user","type":"address","internalType":"address"}],"outputs":[{"name":"","type":"uint256[]","internalType":"uint256[]"},{"name":"","type":"address[]","internalType":"address[]"},{"name":"","type":"string[]","internalType":"string[]"}],"stateMutability":"view"},{"type":"function","name":"makePayment","inputs":[{"name":"_recipient","type":"address","internalType":"address"}],"outputs":[],"stateMutability":"payable"},{"type":"event","name":"PaymentReceived","inputs":[{"name":"_from","type":"address","indexed":true,"internalType":"address"},{"name":"_amount","type":"uint256","indexed":false,"internalType":"uint256"},{"name":"timestamp","type":"uint256","indexed":false,"internalType":"uint256"}],"anonymous":false},{"type":"error","name":"Cant_Access_Other_PeaplePayments","inputs":[]},{"type":"error","name":"Payment_Amount_Must_Be_Greater_Than_0","inputs":[{"name":"amount","type":"uint256","internalType":"uint256"}]},{"type":"error","name":"Payment__TransferFailed","inputs":[]}],"bytecode":{"object":"0x608060405234801561001057600080fd5b50610d86806100206000396000f3fe6080604052600436106100345760003560e01c8063300be4fc146100395780633612fe941461004e5780634d39ae4714610084575b600080fd5b61004c6100473660046108d5565b6100b3565b005b34801561005a57600080fd5b5061006e610069366004610905565b610229565b60405161007b919061096e565b60405180910390f35b34801561009057600080fd5b506100a461009f3660046108d5565b6102d5565b60405161007b939291906109db565b42346100d857604051636226d3a560e11b815234600482015260240160405180910390fd5b6000826001600160a01b03163460405160006040518083038185875af1925050503d8060008114610125576040519150601f19603f3d011682016040523d82523d6000602084013e61012a565b606091505b505090508061014c57604051637306f00b60e11b815260040160405180910390fd5b6001600160a01b0383166000908152602081815260408083203384529091528120805434929061017d908490610a88565b90915550506001600160a01b038316600090815260016020526040812080546001600160a01b0319163317905560038054916101b883610aa1565b919050555060026101c842610555565b815460018101835560009283526020909220909101906101e89082610b5b565b50604080513481526020810184905233917f5677b5d4cf976ac32defbd95a6a5aaf0d1fee450a11fc26f3c11aae6e6c33d06910160405180910390a2505050565b6002818154811061023957600080fd5b90600052602060002001600091509050805461025490610ad0565b80601f016020809104026020016040519081016040528092919081815260200182805461028090610ad0565b80156102cd5780601f106102a2576101008083540402835291602001916102cd565b820191906000526020600020905b8154815290600101906020018083116102b057829003601f168201915b505050505081565b60608080336001600160a01b03851614610302576040516309753d2b60e11b815260040160405180910390fd5b600060035467ffffffffffffffff81111561031f5761031f610aba565b604051908082528060200260200182016040528015610348578160200160208202803683370190505b509050600060035467ffffffffffffffff81111561036857610368610aba565b604051908082528060200260200182016040528015610391578160200160208202803683370190505b509050600060035467ffffffffffffffff8111156103b1576103b1610aba565b6040519080825280602002602001820160405280156103e457816020015b60608152602001906001900390816103cf5790505b50905060005b600354811015610548576001600160a01b038089166000908152600160205260409020548551911690819086908490811061042757610427610c1b565b6001600160a01b039283166020918202929092018101919091528a8216600090815280825260408082209385168252929091522054845185908490811061047057610470610c1b565b6020026020010181815250506002828154811061048f5761048f610c1b565b9060005260206000200180546104a490610ad0565b80601f01602080910402602001604051908101604052809291908181526020018280546104d090610ad0565b801561051d5780601f106104f25761010080835404028352916020019161051d565b820191906000526020600020905b81548152906001019060200180831161050057829003601f168201915b505050505083838151811061053457610534610c1b565b6020908102919091010152506001016103ea565b5090969195509350915050565b60606000601e6105686201518085610c47565b6105729190610c5b565b61057d906001610a88565b90506000600c6105906228206f86610c47565b61059a9190610c5b565b6105a5906001610a88565b905060006105b76301e1853e86610c47565b6105c3906107b2610a88565b9050600060186105d5610e1088610c47565b6105df9190610c5b565b90506000603c6105ef8189610c47565b6105f99190610c5b565b90506000610608603c89610c5b565b90506000610615876107a9565b9050806040516020016106289190610c6f565b604051602081830303815290604052905080610643876107a9565b604051602001610654929190610c94565b6040516020818303038152906040529050806040516020016106769190610c6f565b604051602081830303815290604052905080610691866107a9565b6040516020016106a2929190610c94565b6040516020818303038152906040529050806040516020016106c49190610cc3565b6040516020818303038152906040529050806106df856107a9565b6040516020016106f0929190610c94565b6040516020818303038152906040529050806040516020016107129190610ce8565b60405160208183030381529060405290508061072d846107a9565b60405160200161073e929190610c94565b6040516020818303038152906040529050806040516020016107609190610ce8565b60405160208183030381529060405290508061077b836107a9565b60405160200161078c929190610c94565b60408051601f198184030181529190529998505050505050505050565b6060816000036107d05750506040805180820190915260018152600360fc1b602082015290565b8160005b81156107fa57806107e481610aa1565b91506107f39050600a83610c47565b91506107d4565b60008167ffffffffffffffff81111561081557610815610aba565b6040519080825280601f01601f19166020018201604052801561083f576020820181803683370190505b509050815b85156108cc57610855600182610d0d565b90506000610864600a88610c47565b61086f90600a610d20565b6108799088610d0d565b610884906030610d37565b905060008160f81b9050808484815181106108a1576108a1610c1b565b60200101906001600160f81b031916908160001a9053506108c3600a89610c47565b97505050610844565b50949350505050565b6000602082840312156108e757600080fd5b81356001600160a01b03811681146108fe57600080fd5b9392505050565b60006020828403121561091757600080fd5b5035919050565b60005b83811015610939578181015183820152602001610921565b50506000910152565b6000815180845261095a81602086016020860161091e565b601f01601f19169290920160200192915050565b6020815260006108fe6020830184610942565b60008282518085526020808601955060208260051b8401016020860160005b848110156109ce57601f198684030189526109bc838351610942565b988401989250908301906001016109a0565b5090979650505050505050565b606080825284519082018190526000906020906080840190828801845b82811015610a14578151845292840192908401906001016109f8565b5050508381038285015285518082528683019183019060005b81811015610a525783516001600160a01b031683529284019291840191600101610a2d565b50508481036040860152610a668187610981565b98975050505050505050565b634e487b7160e01b600052601160045260246000fd5b80820180821115610a9b57610a9b610a72565b92915050565b600060018201610ab357610ab3610a72565b5060010190565b634e487b7160e01b600052604160045260246000fd5b600181811c90821680610ae457607f821691505b602082108103610b0457634e487b7160e01b600052602260045260246000fd5b50919050565b601f821115610b56576000816000526020600020601f850160051c81016020861015610b335750805b601f850160051c820191505b81811015610b5257828155600101610b3f565b5050505b505050565b815167ffffffffffffffff811115610b7557610b75610aba565b610b8981610b838454610ad0565b84610b0a565b602080601f831160018114610bbe5760008415610ba65750858301515b600019600386901b1c1916600185901b178555610b52565b600085815260208120601f198616915b82811015610bed57888601518255948401946001909101908401610bce565b5085821015610c0b5787850151600019600388901b60f8161c191681555b5050505050600190811b01905550565b634e487b7160e01b600052603260045260246000fd5b634e487b7160e01b600052601260045260246000fd5b600082610c5657610c56610c31565b500490565b600082610c6a57610c6a610c31565b500690565b60008251610c8181846020870161091e565b602d60f81b920191825250600101919050565b60008351610ca681846020880161091e565b835190830190610cba81836020880161091e565b01949350505050565b60008251610cd581846020870161091e565b600160fd1b920191825250600101919050565b60008251610cfa81846020870161091e565b601d60f91b920191825250600101919050565b81810381811115610a9b57610a9b610a72565b8082028115828204841417610a9b57610a9b610a72565b60ff8181168382160190811115610a9b57610a9b610a7256fea2646970667358221220b240ec784eff3b075b056c588e7115204c2f30e943303d89cdf58ea82a0a00cc64736f6c63430008170033","linkReferences":{}},"methodIdentifiers":{"blockTimestamps(uint256)":"3612fe94","getTotalPayments(address)":"4d39ae47","makePayment(address)":"300be4fc"},"id":25}