{"abi":[{"type":"constructor","inputs":[],"stateMutability":"nonpayable"},{"type":"function","name":"blockTimestamps","inputs":[{"name":"","type":"uint256","internalType":"uint256"}],"outputs":[{"name":"","type":"string","internalType":"string"}],"stateMutability":"view"},{"type":"function","name":"getTotalPayments","inputs":[{"name":"user","type":"address","internalType":"address"}],"outputs":[{"name":"","type":"uint256[]","internalType":"uint256[]"},{"name":"","type":"address[]","internalType":"address[]"},{"name":"","type":"string[]","internalType":"string[]"}],"stateMutability":"view"},{"type":"function","name":"makePayment","inputs":[{"name":"_recipient","type":"address","internalType":"address"}],"outputs":[],"stateMutability":"payable"},{"type":"event","name":"PaymentReceived","inputs":[{"name":"_from","type":"address","indexed":false,"internalType":"address"},{"name":"_to","type":"address","indexed":true,"internalType":"address"},{"name":"_amount","type":"uint256","indexed":false,"internalType":"uint256"},{"name":"timestamp","type":"string","indexed":false,"internalType":"string"}],"anonymous":false},{"type":"error","name":"Cant_Access_Other_PeaplePayments","inputs":[]},{"type":"error","name":"Payment_Amount_Must_Be_Greater_Than_0","inputs":[{"name":"amount","type":"uint256","internalType":"uint256"}]},{"type":"error","name":"Payment__TransferFailed","inputs":[]}],"bytecode":{"object":"0x608060405234801561001057600080fd5b50610dc8806100206000396000f3fe6080604052600436106100345760003560e01c8063300be4fc146100395780633612fe941461004e5780634d39ae4714610084575b600080fd5b61004c6100473660046108e7565b6100b3565b005b34801561005a57600080fd5b5061006e610069366004610917565b61023b565b60405161007b9190610980565b60405180910390f35b34801561009057600080fd5b506100a461009f3660046108e7565b6102e7565b60405161007b939291906109ed565b42346100d857604051636226d3a560e11b815234600482015260240160405180910390fd5b6000826001600160a01b03163460405160006040518083038185875af1925050503d8060008114610125576040519150601f19603f3d011682016040523d82523d6000602084013e61012a565b606091505b505090508061014c57604051637306f00b60e11b815260040160405180910390fd5b6001600160a01b0383166000908152602081815260408083203384529091528120805434929061017d908490610a9a565b90915550506001600160a01b038316600090815260016020526040812080546001600160a01b0319163317905560038054916101b883610ab3565b919050555060026101c842610567565b815460018101835560009283526020909220909101906101e89082610b6d565b50826001600160a01b03167f0da8e031922d6bdf36a83b26ef74cd487e4ec7945a6abf37b9b8cf1b194788fd333461021f86610567565b60405161022e93929190610c2d565b60405180910390a2505050565b6002818154811061024b57600080fd5b90600052602060002001600091509050805461026690610ae2565b80601f016020809104026020016040519081016040528092919081815260200182805461029290610ae2565b80156102df5780601f106102b4576101008083540402835291602001916102df565b820191906000526020600020905b8154815290600101906020018083116102c257829003601f168201915b505050505081565b60608080336001600160a01b03851614610314576040516309753d2b60e11b815260040160405180910390fd5b600060035467ffffffffffffffff81111561033157610331610acc565b60405190808252806020026020018201604052801561035a578160200160208202803683370190505b509050600060035467ffffffffffffffff81111561037a5761037a610acc565b6040519080825280602002602001820160405280156103a3578160200160208202803683370190505b509050600060035467ffffffffffffffff8111156103c3576103c3610acc565b6040519080825280602002602001820160405280156103f657816020015b60608152602001906001900390816103e15790505b50905060005b60035481101561055a576001600160a01b038089166000908152600160205260409020548551911690819086908490811061043957610439610c5d565b6001600160a01b039283166020918202929092018101919091528a8216600090815280825260408082209385168252929091522054845185908490811061048257610482610c5d565b602002602001018181525050600282815481106104a1576104a1610c5d565b9060005260206000200180546104b690610ae2565b80601f01602080910402602001604051908101604052809291908181526020018280546104e290610ae2565b801561052f5780601f106105045761010080835404028352916020019161052f565b820191906000526020600020905b81548152906001019060200180831161051257829003601f168201915b505050505083838151811061054657610546610c5d565b6020908102919091010152506001016103fc565b5090969195509350915050565b60606000601e61057a6201518085610c89565b6105849190610c9d565b61058f906001610a9a565b90506000600c6105a26228206f86610c89565b6105ac9190610c9d565b6105b7906001610a9a565b905060006105c96301e1853e86610c89565b6105d5906107b2610a9a565b9050600060186105e7610e1088610c89565b6105f19190610c9d565b90506000603c6106018189610c89565b61060b9190610c9d565b9050600061061a603c89610c9d565b90506000610627876107bb565b90508060405160200161063a9190610cb1565b604051602081830303815290604052905080610655876107bb565b604051602001610666929190610cd6565b6040516020818303038152906040529050806040516020016106889190610cb1565b6040516020818303038152906040529050806106a3866107bb565b6040516020016106b4929190610cd6565b6040516020818303038152906040529050806040516020016106d69190610d05565b6040516020818303038152906040529050806106f1856107bb565b604051602001610702929190610cd6565b6040516020818303038152906040529050806040516020016107249190610d2a565b60405160208183030381529060405290508061073f846107bb565b604051602001610750929190610cd6565b6040516020818303038152906040529050806040516020016107729190610d2a565b60405160208183030381529060405290508061078d836107bb565b60405160200161079e929190610cd6565b60408051601f198184030181529190529998505050505050505050565b6060816000036107e25750506040805180820190915260018152600360fc1b602082015290565b8160005b811561080c57806107f681610ab3565b91506108059050600a83610c89565b91506107e6565b60008167ffffffffffffffff81111561082757610827610acc565b6040519080825280601f01601f191660200182016040528015610851576020820181803683370190505b509050815b85156108de57610867600182610d4f565b90506000610876600a88610c89565b61088190600a610d62565b61088b9088610d4f565b610896906030610d79565b905060008160f81b9050808484815181106108b3576108b3610c5d565b60200101906001600160f81b031916908160001a9053506108d5600a89610c89565b97505050610856565b50949350505050565b6000602082840312156108f957600080fd5b81356001600160a01b038116811461091057600080fd5b9392505050565b60006020828403121561092957600080fd5b5035919050565b60005b8381101561094b578181015183820152602001610933565b50506000910152565b6000815180845261096c816020860160208601610930565b601f01601f19169290920160200192915050565b6020815260006109106020830184610954565b60008282518085526020808601955060208260051b8401016020860160005b848110156109e057601f198684030189526109ce838351610954565b988401989250908301906001016109b2565b5090979650505050505050565b606080825284519082018190526000906020906080840190828801845b82811015610a2657815184529284019290840190600101610a0a565b5050508381038285015285518082528683019183019060005b81811015610a645783516001600160a01b031683529284019291840191600101610a3f565b50508481036040860152610a788187610993565b98975050505050505050565b634e487b7160e01b600052601160045260246000fd5b80820180821115610aad57610aad610a84565b92915050565b600060018201610ac557610ac5610a84565b5060010190565b634e487b7160e01b600052604160045260246000fd5b600181811c90821680610af657607f821691505b602082108103610b1657634e487b7160e01b600052602260045260246000fd5b50919050565b601f821115610b68576000816000526020600020601f850160051c81016020861015610b455750805b601f850160051c820191505b81811015610b6457828155600101610b51565b5050505b505050565b815167ffffffffffffffff811115610b8757610b87610acc565b610b9b81610b958454610ae2565b84610b1c565b602080601f831160018114610bd05760008415610bb85750858301515b600019600386901b1c1916600185901b178555610b64565b600085815260208120601f198616915b82811015610bff57888601518255948401946001909101908401610be0565b5085821015610c1d5787850151600019600388901b60f8161c191681555b5050505050600190811b01905550565b60018060a01b0384168152826020820152606060408201526000610c546060830184610954565b95945050505050565b634e487b7160e01b600052603260045260246000fd5b634e487b7160e01b600052601260045260246000fd5b600082610c9857610c98610c73565b500490565b600082610cac57610cac610c73565b500690565b60008251610cc3818460208701610930565b602d60f81b920191825250600101919050565b60008351610ce8818460208801610930565b835190830190610cfc818360208801610930565b01949350505050565b60008251610d17818460208701610930565b600160fd1b920191825250600101919050565b60008251610d3c818460208701610930565b601d60f91b920191825250600101919050565b81810381811115610aad57610aad610a84565b8082028115828204841417610aad57610aad610a84565b60ff8181168382160190811115610aad57610aad610a8456fea26469706673582212206737dca66d77d0a2f92043c4aa369c004b7b669ff9e03dd427d5de709643f63164736f6c63430008170033","linkReferences":{}},"methodIdentifiers":{"blockTimestamps(uint256)":"3612fe94","getTotalPayments(address)":"4d39ae47","makePayment(address)":"300be4fc"},"id":25}