{"abi":[{"type":"constructor","inputs":[],"stateMutability":"nonpayable"},{"type":"function","name":"getTotalPayments","inputs":[{"name":"_receiver","type":"address","internalType":"address"},{"name":"_sender","type":"address","internalType":"address"}],"outputs":[{"name":"","type":"uint256","internalType":"uint256"}],"stateMutability":"view"},{"type":"function","name":"makePayment","inputs":[{"name":"_recipient","type":"address","internalType":"address"}],"outputs":[],"stateMutability":"payable"},{"type":"event","name":"PaymentReceived","inputs":[{"name":"_from","type":"address","indexed":false,"internalType":"address"},{"name":"_to","type":"address","indexed":true,"internalType":"address"},{"name":"_amount","type":"uint256","indexed":false,"internalType":"uint256"},{"name":"timestamp","type":"string","indexed":false,"internalType":"string"}],"anonymous":false},{"type":"error","name":"Cant_Access_Other_PeaplePayments","inputs":[]},{"type":"error","name":"Payment_Amount_Must_Be_Greater_Than_0","inputs":[{"name":"amount","type":"uint256","internalType":"uint256"}]},{"type":"error","name":"Payment__TransferFailed","inputs":[]}],"bytecode":{"object":"0x608060405234801561001057600080fd5b5061080e806100206000396000f3fe6080604052600436106100295760003560e01c8063300be4fc1461002e578063492d4e3e14610043575b600080fd5b61004161003c366004610589565b610075565b005b34801561004f57600080fd5b5061006361005e3660046105ab565b610196565b60405190815260200160405180910390f35b423461009a57604051636226d3a560e11b815234600482015260240160405180910390fd5b6000826001600160a01b03163460405160006040518083038185875af1925050503d80600081146100e7576040519150601f19603f3d011682016040523d82523d6000602084013e6100ec565b606091505b505090508061010e57604051637306f00b60e11b815260040160405180910390fd5b6001600160a01b0383166000908152602081815260408083203384529091528120805434929061013f9084906105f4565b90915550506001600160a01b0383167f0da8e031922d6bdf36a83b26ef74cd487e4ec7945a6abf37b9b8cf1b194788fd333461017a866101ed565b6040516101899392919061062b565b60405180910390a2505050565b6000336001600160a01b038416146101c1576040516309753d2b60e11b815260040160405180910390fd5b506001600160a01b03808316600090815260208181526040808320938516835292905220545b92915050565b60606000601e610200620151808561068a565b61020a919061069e565b6102159060016105f4565b90506000600c6102286228206f8661068a565b610232919061069e565b61023d9060016105f4565b9050600061024f6301e1853e8661068a565b61025b906107b26105f4565b90506000601861026d610e108861068a565b610277919061069e565b90506000603c610287818961068a565b610291919061069e565b905060006102a0603c8961069e565b905060006102ad87610441565b9050806040516020016102c091906106b2565b6040516020818303038152906040529050806102db87610441565b6040516020016102ec9291906106d7565b60405160208183030381529060405290508060405160200161030e91906106b2565b60405160208183030381529060405290508061032986610441565b60405160200161033a9291906106d7565b60405160208183030381529060405290508060405160200161035c9190610706565b60405160208183030381529060405290508061037785610441565b6040516020016103889291906106d7565b6040516020818303038152906040529050806040516020016103aa919061072b565b6040516020818303038152906040529050806103c584610441565b6040516020016103d69291906106d7565b6040516020818303038152906040529050806040516020016103f8919061072b565b60405160208183030381529060405290508061041383610441565b6040516020016104249291906106d7565b60408051601f198184030181529190529998505050505050505050565b6060816000036104685750506040805180820190915260018152600360fc1b602082015290565b8160005b8115610492578061047c81610750565b915061048b9050600a8361068a565b915061046c565b60008167ffffffffffffffff8111156104ad576104ad610769565b6040519080825280601f01601f1916602001820160405280156104d7576020820181803683370190505b509050815b8515610564576104ed60018261077f565b905060006104fc600a8861068a565b61050790600a610792565b610511908861077f565b61051c9060306107a9565b905060008160f81b905080848481518110610539576105396107c2565b60200101906001600160f81b031916908160001a90535061055b600a8961068a565b975050506104dc565b50949350505050565b80356001600160a01b038116811461058457600080fd5b919050565b60006020828403121561059b57600080fd5b6105a48261056d565b9392505050565b600080604083850312156105be57600080fd5b6105c78361056d565b91506105d56020840161056d565b90509250929050565b634e487b7160e01b600052601160045260246000fd5b808201808211156101e7576101e76105de565b60005b8381101561062257818101518382015260200161060a565b50506000910152565b60018060a01b0384168152826020820152606060408201526000825180606084015261065e816080850160208701610607565b601f01601f191691909101608001949350505050565b634e487b7160e01b600052601260045260246000fd5b60008261069957610699610674565b500490565b6000826106ad576106ad610674565b500690565b600082516106c4818460208701610607565b602d60f81b920191825250600101919050565b600083516106e9818460208801610607565b8351908301906106fd818360208801610607565b01949350505050565b60008251610718818460208701610607565b600160fd1b920191825250600101919050565b6000825161073d818460208701610607565b601d60f91b920191825250600101919050565b600060018201610762576107626105de565b5060010190565b634e487b7160e01b600052604160045260246000fd5b818103818111156101e7576101e76105de565b80820281158282048414176101e7576101e76105de565b60ff81811683821601908111156101e7576101e76105de565b634e487b7160e01b600052603260045260246000fdfea264697066735822122012dc3b57026d96f16de27a45fdf598ed857df3e14217f47ff3c19cf74b6312e264736f6c63430008170033","linkReferences":{}},"methodIdentifiers":{"getTotalPayments(address,address)":"492d4e3e","makePayment(address)":"300be4fc"},"id":25}